{
  "contractName": "Donation",
  "abi": [
    {
      "inputs": [],
      "stateMutability": "nonpayable",
      "type": "constructor"
    },
    {
      "anonymous": false,
      "inputs": [
        {
          "indexed": true,
          "internalType": "address",
          "name": "donor",
          "type": "address"
        },
        {
          "indexed": false,
          "internalType": "uint256",
          "name": "amount",
          "type": "uint256"
        }
      ],
      "name": "DonationReceived",
      "type": "event"
    },
    {
      "anonymous": false,
      "inputs": [
        {
          "indexed": true,
          "internalType": "address",
          "name": "recipient",
          "type": "address"
        },
        {
          "indexed": false,
          "internalType": "uint256",
          "name": "amount",
          "type": "uint256"
        }
      ],
      "name": "Withdrawn",
      "type": "event"
    },
    {
      "inputs": [
        {
          "internalType": "address",
          "name": "",
          "type": "address"
        }
      ],
      "name": "donations",
      "outputs": [
        {
          "internalType": "uint256",
          "name": "",
          "type": "uint256"
        }
      ],
      "stateMutability": "view",
      "type": "function",
      "constant": true
    },
    {
      "inputs": [],
      "name": "owner",
      "outputs": [
        {
          "internalType": "address",
          "name": "",
          "type": "address"
        }
      ],
      "stateMutability": "view",
      "type": "function",
      "constant": true
    },
    {
      "inputs": [],
      "name": "totalDonations",
      "outputs": [
        {
          "internalType": "uint256",
          "name": "",
          "type": "uint256"
        }
      ],
      "stateMutability": "view",
      "type": "function",
      "constant": true
    },
    {
      "inputs": [],
      "name": "donate",
      "outputs": [],
      "stateMutability": "payable",
      "type": "function",
      "payable": true
    },
    {
      "inputs": [
        {
          "internalType": "uint256",
          "name": "amount",
          "type": "uint256"
        }
      ],
      "name": "withdraw",
      "outputs": [],
      "stateMutability": "nonpayable",
      "type": "function"
    },
    {
      "inputs": [],
      "name": "getBalance",
      "outputs": [
        {
          "internalType": "uint256",
          "name": "",
          "type": "uint256"
        }
      ],
      "stateMutability": "view",
      "type": "function",
      "constant": true
    }
  ],
  "bytecode": "0x608060405234801561001057600080fd5b50336000806101000a81548173ffffffffffffffffffffffffffffffffffffffff021916908373ffffffffffffffffffffffffffffffffffffffff1602179055506107b2806100606000396000f3fe6080604052600436106100555760003560e01c806312065fe01461005a5780632e1a7d4d146100855780638da5cb5b146100ae578063cc6cb19a146100d9578063de2ed89314610116578063ed88c68e14610141575b600080fd5b34801561006657600080fd5b5061006f61014b565b60405161007c9190610661565b60405180910390f35b34801561009157600080fd5b506100ac60048036038101906100a79190610493565b610153565b005b3480156100ba57600080fd5b506100c36102fc565b6040516100d091906105e6565b60405180910390f35b3480156100e557600080fd5b5061010060048036038101906100fb919061046a565b610320565b60405161010d9190610661565b60405180910390f35b34801561012257600080fd5b5061012b610338565b6040516101389190610661565b60405180910390f35b61014961033e565b005b600047905090565b60008054906101000a900473ffffffffffffffffffffffffffffffffffffffff1673ffffffffffffffffffffffffffffffffffffffff163373ffffffffffffffffffffffffffffffffffffffff16146101e1576040517f08c379a00000000000000000000000000000000000000000000000000000000081526004016101d890610601565b60405180910390fd5b47811115610224576040517f08c379a000000000000000000000000000000000000000000000000000000000815260040161021b90610641565b60405180910390fd5b60008054906101000a900473ffffffffffffffffffffffffffffffffffffffff1673ffffffffffffffffffffffffffffffffffffffff166108fc829081150290604051600060405180830381858888f1935050505015801561028a573d6000803e3d6000fd5b5060008054906101000a900473ffffffffffffffffffffffffffffffffffffffff1673ffffffffffffffffffffffffffffffffffffffff167f7084f5476618d8e60b11ef0d7d3f06914655adb8793e28ff7f018d4c76d505d5826040516102f19190610661565b60405180910390a250565b60008054906101000a900473ffffffffffffffffffffffffffffffffffffffff1681565b60026020528060005260406000206000915090505481565b60015481565b60003411610381576040517f08c379a000000000000000000000000000000000000000000000000000000000815260040161037890610621565b60405180910390fd5b34600260003373ffffffffffffffffffffffffffffffffffffffff1673ffffffffffffffffffffffffffffffffffffffff16815260200190815260200160002060008282546103d0919061068d565b9250508190555034600160008282546103e9919061068d565b925050819055503373ffffffffffffffffffffffffffffffffffffffff167f264f630d9efa0d07053a31163641d9fcc0adafc9d9e76f1c37c2ce3a558d2c52346040516104369190610661565b60405180910390a2565b60008135905061044f8161074e565b92915050565b60008135905061046481610765565b92915050565b60006020828403121561047c57600080fd5b600061048a84828501610440565b91505092915050565b6000602082840312156104a557600080fd5b60006104b384828501610455565b91505092915050565b6104c5816106e3565b82525050565b60006104d860258361067c565b91507f4f6e6c7920746865206f776e65722063616e2063616c6c20746869732066756e60008301527f6374696f6e0000000000000000000000000000000000000000000000000000006020830152604082019050919050565b600061053e60298361067c565b91507f446f6e6174696f6e20616d6f756e74206d75737420626520677265617465722060008301527f7468616e207a65726f00000000000000000000000000000000000000000000006020830152604082019050919050565b60006105a460148361067c565b91507f496e73756666696369656e742062616c616e63650000000000000000000000006000830152602082019050919050565b6105e081610715565b82525050565b60006020820190506105fb60008301846104bc565b92915050565b6000602082019050818103600083015261061a816104cb565b9050919050565b6000602082019050818103600083015261063a81610531565b9050919050565b6000602082019050818103600083015261065a81610597565b9050919050565b600060208201905061067660008301846105d7565b92915050565b600082825260208201905092915050565b600061069882610715565b91506106a383610715565b9250827fffffffffffffffffffffffffffffffffffffffffffffffffffffffffffffffff038211156106d8576106d761071f565b5b828201905092915050565b60006106ee826106f5565b9050919050565b600073ffffffffffffffffffffffffffffffffffffffff82169050919050565b6000819050919050565b7f4e487b7100000000000000000000000000000000000000000000000000000000600052601160045260246000fd5b610757816106e3565b811461076257600080fd5b50565b61076e81610715565b811461077957600080fd5b5056fea2646970667358221220ceb7d921ece95d899b25f2b05e6d1df6b969673f9ba5a6a95d89862514ac4e6164736f6c63430008000033",
  "immutableReferences": {},
  "source": "// SPDX-License-Identifier: MIT\r\npragma solidity ^0.8.0;\r\n\r\ncontract Donation {\r\n    address public owner;\r\n    uint256 public totalDonations;\r\n    mapping(address => uint256) public donations;\r\n\r\n    event DonationReceived(address indexed donor, uint256 amount);\r\n    event Withdrawn(address indexed recipient, uint256 amount);\r\n\r\n    modifier onlyOwner() {\r\n        require(msg.sender == owner, \"Only the owner can call this function\");\r\n        _;\r\n    }\r\n\r\n    constructor() {\r\n        owner = msg.sender;\r\n    }\r\n\r\n    function donate() external payable {\r\n        require(msg.value > 0, \"Donation amount must be greater than zero\");\r\n        donations[msg.sender] += msg.value;\r\n        totalDonations += msg.value;\r\n\r\n        emit DonationReceived(msg.sender, msg.value);\r\n    }\r\n\r\n    function withdraw(uint256 amount) external onlyOwner {\r\n        require(amount <= address(this).balance, \"Insufficient balance\");\r\n        payable(owner).transfer(amount);\r\n\r\n        emit Withdrawn(owner, amount);\r\n    }\r\n\r\n    function getBalance() external view returns (uint256) {\r\n        return address(this).balance;\r\n    }\r\n}\r\n",
  "sourcePath": "C:\\Users\\sophi\\my projects js\\giverhub\\contracts\\Dnation.sol",
  "compiler": {
    "name": "solc",
    "version": "0.8.0+commit.c7dfd78e.Emscripten.clang"
  },
  "schemaVersion": "3.4.16",
  "updatedAt": "2024-07-23T00:54:07.902Z",
  "networkType": "ethereum",
  "devdoc": {
    "kind": "dev",
    "methods": {},
    "version": 1
  },
  "userdoc": {
    "kind": "user",
    "methods": {},
    "version": 1
  }
}